:020000040000fa
:080000000002040000000000f2
:020000040000fa
:100400000f802000007f2400000188000000000011
:100410000c000700202b2000010020001100070025
:10042000000020000000e000020032000000020096
:100430000000000090020200000000000040da000e
:100440000000fe004440a900000020000000e00081
:100450000300320000002000a00188004440a800f2
:100460000000060091018800800078000000eb0089
:1004700015003700e280400032a0b4009101ba00bc
:10048000e280400032a0b4009102ba00e280400055
:1004900032a0b4000002eb00472bde00f507b200eb
:1004a000602ce10004003a000059eb008301e900f0
:1004b000fdff3e00040037006128e100010032002a
:1004c0000082eb00040007001101ba000200e00006
:1004d000e8ff3a00000006003159ba008301e90044
:1004e0000c0032002159ba008301e90008003200f3
:1004f0000400e00003003a00e280400032a0b400b3
:10050000f5ff370011d9ba008301e900faff3a007c
:100510008100e800e180400032a0b4000000060045
:020000040000fa
:0200000401f009
:04000000ffff0000fe
:020000040000fa
:0200000401f009
:04000c00f9ff0000f8
:020000040000fa
:0200000401f009
:040010005bff000092
:020000040000fa
:0200000401f009
:040014007fff00006a
:020000040000fa
:10000800b4020000b4020000b4020000b402000010
:10001800b4020000b4020000b4020000b402000000
:10002800b4020000b4020000b4020000b4020000f0
:10003800b4020000b4020000b4020000b4020000e0
:020000040000fa
:020000040000fa
:100520000400fa00000f78001107980092022000e2
:10053000a10220001e007800030007000000eb006d
:100540000080fa00000006000600fa00000f7800a4
:100550001107980022079800000000000080fa00b0
:040560000000060091
:020000040000fa
:040564000000000093
:020000040000fa
:040568000000fe0091
:00000001FF
